:100000000C9463000C948B000C948B000C94E2060F
:100010000C94E2060C94E2060C948B000C948B007A
:100020000C948B000C948B000C948B000C948B0024
:100030000C948B000C948B000C948B000C948B0014
:100040000C9440060C948B000C94B0060C948A0619
:100050000C948B000C948B000C948B000C948B00F4
:100060000C948B000C948B000000000024002700EF
:100070002A0000000008000201000003040700003D
:1000800000000000000000000000230026002900FE
:1000900000000000250028002B00040404040404D0
:1000A0000404020202020202030303030303010227
:1000B00004081020408001020408102001020408F6
:1000C00010200E08AD0C11241FBECFEFD8E0DEBF0C
:1000D000CDBF25E0AEE5B3E001C01D92A631B20769
:1000E000E1F713E0A0E0B1E0EAE8F2E202C0059037
:1000F0000D92AE35B107D9F710E0C2E6D0E004C0EA
:100100002197FE010E945B0EC136D107C9F70E94FC
:1001100061090C9438110C94000087E480937C00F2
:1001200080917A00806480937A0080917A0086FDC5
:10013000FCCF80917800909179000895CF92DF9262
:10014000EF92FF926B017C01E091BC03F091BD0343
:1001500082E08083C11481EED806E104F104A1F0AD
:1001600060E079E08DE390E0A70196010E94060E21
:1001700021503109410951095695479537952795E1
:10018000211580E13807A8F0E091BC03F091BD0390
:10019000108260E874E88EE190E0A70196010E9469
:1001A000060E215031094109510956954795379559
:1001B0002795E091B803F091B9033083E091BA0339
:1001C000F091BB0320831092C403E091C003F0912F
:1001D000C10386E08083E091BE03F091BF0380817C
:1001E00080618083E091BE03F091BF0380818860CD
:1001F0008083E091BE03F091BF038081806880839B
:10020000E091BE03F091BF0380818F7D8083FF90DA
:10021000EF90DF90CF900895833081F028F4813003
:1002200099F08230A9F008958730A9F08830C9F09C
:100230008430B1F4809180008F7D03C08091800074
:100240008F7780938000089584B58F7784BD08955B
:1002500084B58F7DFBCF8091B0008F778093B00005
:1002600008958091B0008F7DF9CFCF93DF93282F31
:1002700030E0F901EE58FF4F8491F901E255FF4F4C
:10028000D491F901E656FF4FC491CC23A1F081111E
:100290000E940C01EC2FF0E0EE0FFF1FEA57FF4F1A
:1002A000A591B491EC91ED2381E090E009F480E018
:1002B000DF91CF91089580E090E0FACF1F93CF9324
:1002C000DF93282F30E0F901EE58FF4F8491F901B8
:1002D000E255FF4FD491F901E656FF4FC491CC236C
:1002E000A9F0162F81110E940C01EC2FF0E0EE0F07
:1002F000FF1FE057FF4FA591B4918FB7F894EC9191
:10030000111108C0D095DE23DC938FBFDF91CF9110
:100310001F910895DE2BF8CFCF93DF9390E0FC017F
:10032000E255FF4F249186569F4FFC01849188230C
:10033000D1F090E0880F991FFC01E859FF4FA5917B
:10034000B491FC01E057FF4FC591D49161110EC0EB
:100350009FB7F8948C91E22FE0958E238C9328819F
:10036000E223E8839FBFDF91CF9108958FB7F89480
:10037000EC91E22BEC938FBFF6CF1F93CF93DF93DB
:10038000182FEB0161E00E948C01209739F460E0A6
:10039000812FDF91CF911F910C945E01CF3FD1054A
:1003A00011F461E0F5CFE12FF0E0EE58FF4FE4915A
:1003B000E33031F140F4E130B1F0E230E1F0C03847
:1003C000D1057CF7E4CFE73029F1E83059F1E4308A
:1003D000B1F780918000806280938000D0938B0081
:1003E000C0938A0004C084B5806884BDC7BDDF9116
:1003F000CF911F91089584B5806284BDC8BDF7CFA9
:1004000080918000806880938000D0938900C093A1
:100410008800EDCF8091B00080688093B000C093D9
:10042000B300E5CF8091B00080628093B000C093AC
:10043000B400DDCF8230910538F0880F991F880F06
:10044000991F05970197F1F708954F925F926F9268
:100450007F928F929F92AF92BF92CF92DF92EF9254
:10046000FF921F93CF93DF934A015B019C0150E001
:1004700040E060E472E48FE090E00E94280E6901A1
:10048000E90137FD2196D595C79561E08091490432
:100490000E948C01A8EEB3E0A50194010E94A10D79
:1004A0002B013C010D2C000CEE08FF0880E090E0D1
:1004B000DC014C015D018C0C9D1CAE1CBF1C841525
:1004C0009505A605B705A0F41091490461E0812FB8
:1004D0000E945E01CE010E941A0260E0812F0E94FC
:1004E0005E01CE010E941A02A895D501C401E1CF98
:1004F000DF91CF911F91FF90EF90DF90CF90BF9051
:10050000AF909F908F907F906F905F904F900895E5
:100510003FB7F8948091A8039091A903A091AA03F2
:10052000B091AB0326B5A89B05C02F3F19F00196EB
:10053000A11DB11D3FBFBA2FA92F982F8827BC013D
:10054000CD01620F711D811D911D42E0660F771F65
:10055000881F991F4A95D1F708958F929F92AF9265
:10056000BF92CF92DF92EF92FF924B015C010E940B
:1005700088026B017C010E9488026C197D098E093A
:100580009F09683E734081059105A8F321E0821A16
:100590009108A108B10888EEC80E83E0D81EE11CBE
:1005A000F11C81149104A104B10429F7FF90EF908C
:1005B000DF90CF90BF90AF909F908F900895AF92B3
:1005C000BF92CF92DF92EF92FF920F931F93CF9340
:1005D000DF936C017B018B01040F151FEB015E01A2
:1005E000AE18BF08C017D10759F06991D601ED9137
:1005F000FC910190F081E02DC6010995892B79F7D6
:10060000C501DF91CF911F910F91FF90EF90DF9087
:10061000CF90BF90AF900895FC01538D448D252F4E
:1006200030E0842F90E0821B930B541710F0CF968C
:10063000089501970895FC01918D828D981761F0BE
:10064000A28DAE0FBF2FB11D5D968C91928D9F5FD5
:100650009F73928F90E008958FEF9FEF0895FC01B4
:10066000918D828D981731F0828DE80FF11D858D67
:1006700090E008958FEF9FEF0895FC01918D228DFA
:10068000892F90E0805C9F4F821B91098F7399277F
:1006900008958CEA93E00E943D0321E0892B09F440
:1006A00020E0822F089580E090E0892B29F00E94BD
:1006B000490381110C9400000895FC01A48DA80F3A
:1006C000B92FB11DA35ABF4F2C91848D90E0019694
:1006D0008F739927848FA689B7892C93A089B189B4
:1006E0008C91837080648C93938D848D981306C055
:1006F0000288F389E02D80818F7D80830895EF92B9
:10070000FF920F931F93CF93DF93EC0181E0888FCB
:100710009B8D8C8D98131AC0E889F989808185FF9B
:1007200015C09FB7F894EE89FF896083E889F9893D
:1007300080818370806480839FBF81E090E0DF913F
:10074000CF911F910F91FF90EF900895F62E0B8D92
:1007500010E00F5F1F4F0F731127E02E8C8D8E114D
:100760000CC00FB607FCFACFE889F989808185FFB4
:10077000F5CFCE010E945D03F1CFEB8DEC0FFD2F85
:10078000F11DE35AFF4FF0829FB7F8940B8FEA896F
:10079000FB8980818062CFCFCF93DF93EC01888D7E
:1007A0008823B9F0AA89BB89E889F9898C9185FDEC
:1007B00003C0808186FD0DC00FB607FCF7CF8C917A
:1007C00085FFF2CF808185FFEDCFCE010E945D03D2
:1007D000E9CFDF91CF9108952091A0033091A1033B
:1007E0002817390771F490919E0380919F03981701
:1007F00041F0E0919E03F0E0E25AFC4F808190E0EE
:1008000008958FEF9FEF08950895EF92FF920F9351
:100810001F93CF93DF93DC015C96ED90FC905D9786
:10082000E114F10479F481E090E013969C938E93A7
:10083000129790E080E0DF91CF911F910F91FF9090
:10084000EF9008955196ED91FC91529750968C91AE
:100850005097982F90950FB75E962C915E97122F18
:10086000127021FD6095F8942081112319F1282B35
:100870002083E7012197F1F728E0462F50E03081EF
:1008800060FF1AC0382B3083E7012197F1F7BA01D6
:1008900075956795215089F7112381F0808189230F
:1008A00080830FBF5C968D919C910197F1F781E059
:1008B00090E0C1CF2923DCCF3923E5CF9081892B6C
:1008C000EFCF2091A0033091A1032817390771F4CD
:1008D00080919F0320919E0390E0805C9F4F821B3C
:1008E000910960E470E00E94F20D089590E080E0CC
:1008F00008952091A0033091A10328173907B9F476
:1009000090919E0380919F03981789F0E0919E0338
:10091000F0E0E25AFC4F808120919E0330E02F5F8F
:100920003F4F2F73332720939E0390E008958FEF5E
:100930009FEF0895CF92DF92EF92FF920F931F9354
:10094000CF93DF93FC01C6A0D7A0F3E0CF1AD10864
:100950008C010A581F4FF80180810E943501EC017B
:100960008FEF9FEF2097E9F4F12CE12CC6010E9454
:100970001A02F80180810E9435010E2C02C0880FF6
:10098000991F0A94E2F7C82BD92BFFEFEF1AFF0A41
:1009900028E0E216F10451F7C6010E941A02CE01C6
:1009A0009927DF91CF911F910F91FF90EF90DF90EA
:1009B000CF900895CF93DF93FC0124A1222371F0FF
:1009C000EC010E949A0488A799A79095991F9927EE
:1009D000991F892F90E0DF91CF91089523A12223C1
:1009E00031F08CEA93E0DF91CF910C943D03DF91DD
:1009F000CF910C946104FC0124A1222351F020A585
:100A000031A54FEF5FEF51A740A737FF0BC00C9404
:100A10009A0423A1222321F08CEA93E00C941B0377
:100A20000C947904C9010895FC0123A1222321F02B
:100A30008CEA93E00C947F030C940504EF92FF92F0
:100A40000F931F93CF93DF93EC0180E0B0E0A0E021
:100A5000EC81FD81AE17BF07D8F4AE171F06A8F4CE
:100A6000E82FF0E00E811F817F010E0D1F1DF801A0
:100A700040830E811F810E0D1F1DF80161830E81C1
:100A80001F81F701E00FF11F228311968D5FE0CFE8
:100A900081E0DF91CF911F910F91FF90EF9008952A
:100AA0001F93CF93DF93EC01162F61E089810E94A1
:100AB0008C01612F8981DF91CF911F910C945E0190
:100AC0000E94FB04992708950F931F93CF93DF9300
:100AD000362F272F6F3F710519F014F03FEF20E0FC
:100AE000C32FD22FC1302FEFD20714F4C1E0DFEFB4
:100AF000FC01268137812C173D0709F18C01D78332
:100B0000C68377FD10C061E00E9450058FE090E041
:100B10000197F1F7BE01F8018081DF91CF911F911C
:100B20000F910C94BD0160E00E9450058FE090E0B1
:100B30000197F1F7662777276C1B7D0BECCFDF91D0
:100B4000CF911F910F91089590E080E00895FC01EE
:100B500001900020E9F73197AF01481B590BBC0108
:100B60008CEA93E00C94DF02CF93DF930E94A705F9
:100B7000EC0180E791E00E94A7058C0F9D1FDF919B
:100B8000CF910895EF92FF920F931F93CF93DF932E
:100B9000EC018C819D818C01000F111F080F191F22
:100BA000EE80FF80A801B701888599850E94F0102A
:100BB000892B09F432C0AA85BB858E853FB7F8948E
:100BC0002C91982F90959223822BF7010E0F1F1FC7
:100BD000E017F10781F0219148E08C9300C027FFD6
:100BE0009C93220F00C000C000C008F49C9300C07A
:100BF0004A9599F7EDCF3FBF8C819D81AC01440FA1
:100C0000551F480F591F6E817F81888599850E94E5
:100C1000FD108BEC97E00197F1F7DF91CF911F91D9
:100C20000F91FF90EF900895242F462F682F8EE4A8
:100C300094E00E941E058EE494E00C94C205242FDB
:100C4000462F682F8DE594E00E941E058DE594E007
:100C50000C94C205EF92FF920F931F93CF93DF93F3
:100C6000EC018B017A010E941F06A701B801CE0199
:100C7000DF91CF911F910F91FF90EF900C9414068C
:100C80001F920F920FB60F9211242F933F938F93C1
:100C90009F93AF93BF938091A4039091A503A091DC
:100CA000A603B091A7033091A30323E0230F2D37B0
:100CB00058F50196A11DB11D2093A3038093A403B1
:100CC0009093A503A093A603B093A7038091A803D4
:100CD0009091A903A091AA03B091AB030196A11D25
:100CE000B11D8093A8039093A903A093AA03B09386
:100CF000AB03BF91AF919F918F913F912F910F9037
:100D00000FBE0F901F90189526E8230F0296A11D85
:100D1000B11DD2CF1F920F920FB60F9211242F93B5
:100D20003F934F935F936F937F938F939F93AF9373
:100D3000BF93EF93FF938CEA93E00E945D03FF91D2
:100D4000EF91BF91AF919F918F917F916F915F9143
:100D50004F913F912F910F900FBE0F901F901895BC
:100D60001F920F920FB60F9211242F938F939F9380
:100D7000EF93FF93E091BC03F091BD038081E0917C
:100D8000C203F091C30382FD1BC090818091C50313
:100D90008F5F8F732091C603821741F0E091C503E6
:100DA000F0E0E455FC4F958F8093C503FF91EF91E0
:100DB0009F918F912F910F900FBE0F901F901895BC
:100DC0008081F4CF1F920F920FB60F9211242F93B0
:100DD0003F934F935F936F937F938F939F93AF93C3
:100DE000BF93EF93FF93E091A003F091A10330979D
:100DF00049F0A685B7858585968D91FF14C09C9195
:100E00008923A1F4FF91EF91BF91AF919F918F91B1
:100E10007F916F915F914F913F912F910F900FBEF6
:100E20000F901F9018959C91892361F7A389B4892D
:100E30009C918589809589238C93868997890197D0
:100E4000F1F7608D718DA685B785558538E020E076
:100E5000CB010197F1F7822F90E095958795282F88
:100E60004C91452309F02068315091F7868D81FD22
:100E7000209580919F0390E001968F739927309180
:100E80009E03381799F0A0919F03B0E0A25ABC4F7F
:100E90002C9380939F03828D938D0197F1F7A38903
:100EA000B4898C919589892B8C93ACCF868D816088
:100EB000868FF1CFCF92DF92EF92FF920F931F9325
:100EC000E82FF92F05C0015011092109310961F1FD
:100ED000908196239417B9F305C001501109210997
:100EE000310911F1908196239413F7CFC12CD12CA5
:100EF000E12CF12C0AC08FEFC81AD80AE80AF80AC8
:100F00000C151D052E053F0579F080818623841779
:100F100091F36C2D7D2D8E2D9F2D1F910F91FF90A4
:100F2000EF90DF90CF90089560E070E080E090E077
:100F30001F910F91FF90EF90DF90CF9008951F9336
:100F4000CF93DF93EC01162FE62FF0E0EE0FFF1F9B
:100F5000E25BFE4F80818883818189836A83282FA9
:100F600030E0F901E255FF4FE491EE87F901E656D2
:100F7000FF4FE491F0E0EE0FFF1FE057FF4F259188
:100F800034913B872A8761E00E948C0180E290E0E7
:100F90009D838C8380E690E00E940E0F9F838E835A
:100FA000892B21F483E791E00E940D1130E020E0CD
:100FB0004C815D81CA01880F991F840F951F2817E6
:100FC000390740F4EE81FF81E20FF31F10822F5F9B
:100FD0003F4FEECF0E940E0F99878887892B21F40F
:100FE00083E791E00E940D1190E080E04C815D81EB
:100FF0009A01220F331F240F351F8217930738F4ED
:10100000E885F985E80FF91F10820196EFCF1A8362
:1010100082E08B83DF91CF911F9108951092AF03EF
:101020001092AE0388EE93E0A0E0B0E08093B003AE
:101030009093B103A093B203B093B3032AE031E0DD
:101040003093AD032093AC0325EC30E03093B9032B
:101050002093B80324EC30E03093BB032093BA0311
:1010600020EC30E03093BD032093BC0321EC30E052
:101070003093BF032093BE0322EC30E03093C103D2
:101080002093C00326EC30E03093C3032093C203C7
:101090001092C5031092C6031092C7031092C803A2
:1010A0002BE0209306052CE02093070561E0609378
:1010B000080520E12093F80421E12093F90423E0BE
:1010C0002093FA0428E020939B0424E120939C04BD
:1010D00026E020939D0410927F0410927E0480935A
:1010E000800490938104A0938204B09383048CE1E4
:1010F00091E090937D0480937C041092930410926D
:1011000092041092950410929404109297041092F5
:101110009604109299041092980480919A048E7FFC
:101120008D7F80939A0486958170682788E00E945D
:101130005E0161E088E00E948C01E6EBF0E0E49162
:10114000E0938C04E2EAF0E0E491F0E0EE0FFF1FA0
:10115000E057FF4F8591949190938E0480938D0476
:1011600060E084E10E948C0180919A0481FD04C0BA
:1011700061E084E10E945E0184E180938804E2ECF6
:10118000F0E0E491E0938904EEEAF0E0E491F0E02D
:10119000EE0FFF1FEA57FF4F8591949190938B04B8
:1011A00080938A048EE291E090937D0480937C0486
:1011B0001092EB041092EA041092ED041092EC04E9
:1011C0001092EF041092EE0461E070E090E080E095
:1011D0000E9433100097E9F09093EB048093EA04A7
:1011E0001092ED041092EC042091EE043091EF0483
:1011F000232B11F4FC0110821092EF041092EE04E4
:1012000062E771E08091EA049091EB040E9406117C
:1012100014C08091EA049091EB04009711F00E94B1
:10122000AA0F1092EB041092EA041092EF041092AD
:10123000EE041092ED041092EC041092A1041092AE
:10124000A00490919C049093F20480919B0480935D
:10125000F30421E030919D04353009F020E0209323
:101260009F0420E431E030937D0420937C0490932C
:10127000F4048093F50489E0809374048AE08093F9
:10128000750482E08093760485E180936C048DE0A0
:1012900080936D0487E080936E0462E08DE594E0B6
:1012A0000E949F0767E08EE494E00E949F071092DF
:1012B0004A0410924B0410924C0488E08093490435
:1012C0000895789484B5826084BD84B5816084BDBE
:1012D00085B5826085BD85B5816085BD80916E00D4
:1012E000816080936E001092810080918100826005
:1012F0008093810080918100816080938100809142
:1013000080008160809380008091B1008460809330
:10131000B1008091B00081608093B00080917A002C
:10132000846080937A0080917A00826080937A0052
:1013300080917A00816080937A0080917A00806841
:1013400080937A001092C10060E072EC81E090E03E
:101350000E949E008FE891E00E94B40584EA91E02B
:101360000E94B40560E085E10E948C0189ED91E066
:101370000E94B40588E690E09093A3048093A204B1
:1013800080919F04882309F48CC060E875E280E0B6
:1013900090E00E949E0060E080919B040E948C017E
:1013A0008CEF91E00E94B4058DE192E00E94B405BB
:1013B0006CE97FEF84E794E00E9464056CE97FEFBD
:1013C0008CE694E00E94640568EE73E080E090E0B3
:1013D0000E94AD0270E060E084E794E00E94640542
:1013E00070E060E08CE694E00E94640544E650E022
:1013F00060E070E084E893E00E94250248EC50E051
:1014000070E060E08FEF90E00E942A0685E492E0B1
:101410000E94B40581E792E00E94A70589E892E066
:101420000E94B4053324339473E0A72EB12CE3E279
:101430008E2E912CC0E0D0E02224239460E0809195
:1014400006050E948C01809106050E9435018C01E1
:1014500060E0809107050E948C01809107050E9441
:101460003501AC0121E030E0012B11F430E020E047
:10147000220F331F91E0452B09F490E0922B50E0AE
:1014800040E0923009F4A2C1933009F4ACC16FEF8F
:1014900070E0913009F4A2C08FEF90E00E942A061C
:1014A000A9C010929704109296041092950410927D
:1014B000940410929304109292048DE991E0909319
:1014C00099048093980490918804963108F047C05D
:1014D0002DEB30E030939304209392042BE931E01C
:1014E00030939504209394042CE231E030939704D8
:1014F000209396042091680084E0983048F031E011
:101500009E3008F430E081E001C0880F3A95EAF798
:10151000822B809368002DE630E0983050F02BE667
:1015200030E09E3030F02CE630E0963110F030E0C4
:1015300020E03093900420938F04292F30E09830DE
:1015400008F03FC081E001C0880F9A95EAF78093C8
:10155000910480919804909199040197F1F78091FA
:10156000960490919704892B09F415CFE091A0037C
:10157000F091A10384E0EC37F80709F40CCF309721
:1015800039F0A389B4899C918589809589238C93AE
:1015900080919A048E7F80939A0410929F031092F8
:1015A0009E038CE794E09093A1038093A003E091C5
:1015B0008F04F0919004808190919104892B808315
:1015C000EACE9E3040F42850310981E001C0880FF6
:1015D0002A95EAF7BCCF2E503109F7CF8FEF90E074
:1015E0000E941F0650E040E070E060E090E080E084
:1015F0000E9414068CE794E00E94DA04892BC9F05B
:101600008CE794E00E9460058034910509F45AC18A
:101610000CF011C18D30910509F44EC10CF0F2C0EF
:101620008830910509F47CC10CF0E2C0079709F4F9
:101630006EC10E948D000B9784F00E948D000B9765
:101640000CF077C162E370E080E090E00E94AD02B0
:101650008091A20383258093A2038091A203882313
:1016600009F4A9C02FB7F8948091A4039091A50321
:10167000A091A603B091A7032FBF4091FE04509103
:10168000FF046091000570910105841B950BA60B6A
:10169000B70B4897A105B10510F02092FD04809189
:1016A000FD04882309F44CC12FB7F8948091A4035A
:1016B0009091A503A091A603B091A7032FBF80939B
:1016C000FE049093FF04A0930005B09301051092CF
:1016D000FD0460E088EF94E00E945005C501019789
:1016E000F1F761E088EF94E00E945005C401019792
:1016F000F1F760E088EF94E00E94500560E080918F
:10170000F9040E948C018091F90490E0FC01E255FB
:10171000FF4F6491FC01E656FF4FE491F0E0EE0FBD
:10172000FF1FEA57FF4F8591949100E412E42FE0E8
:1017300030E0462F0E945A07611571058105910519
:1017400029F06F5F7F4F8F4F9F4F9F706B017C0120
:101750000E94F10C609302057093030580930405C9
:1017600090930505C701B6010E94F10C20E030E01E
:1017700048E652E40E94610E2B013C0120E030E07B
:1017800048EC53E40E94090F87FF04C0CD28CE28FF
:10179000CF2831F4412C512C88EC682E83E4782E2C
:1017A000C301B2010E94DA0ECB0144E650E060E0D2
:1017B00070E00E942502209709F440CE0E94490360
:1017C000882309F43BCE0E94000038CE70E060E030
:1017D00090E080E00E941F0650E040E06FEF70E074
:1017E0008FEF90E005CF70E060E090E080E056CEB3
:1017F0008930910509F48EC00C9709F01ACF8CE05E
:1018000093E031C08831910509F487C054F48531E3
:10181000910509F454C0469709F00BCF83E093E09B
:1018200022C08931910509F461C04C9709F001CFBC
:1018300080E393E018C08634910591F1BCF48334C1
:101840009105B9F13CF48234910509F0F2CE82E4BD
:1018500093E009C08434910549F18534910509F07C
:10186000E8CE8FE892E00E94B405E3CE8235910580
:1018700009F45CC054F487349105A9F08A349105C9
:1018800009F0D7CE84E593E0EECF8A35910509F4CF
:101890004AC08E35910509F0CCCE8EE193E0E3CFBE
:1018A00088E992E0E0CF81EA92E0DDCF8AEA92E037
:1018B000DACF83EB92E0D7CF8CEB92E0D4CF85ECFC
:1018C00092E0D1CF84ED92E00E94B40510E000E0F8
:1018D00041E050E060E070E0C8010E9425020F5F27
:1018E0001F4F083283E2180799F7A3CE8EED92E0DE
:1018F0000E94B40508E213E241E050E060E070E0CD
:10190000C8010E94250201501109B1F792CE8AEE5A
:1019100092E0A9CF86EF92E0A6CF85E193E0A3CF36
:1019200087E293E0A0CF89E393E09DCF8BE493E03F
:101930009ACF61E070E080E090E00E94AD027DCE41
:101940006091020570910305809104059091050551
:101950000E94D30E6B017C0105CF809154049091BD
:1019600055040E94AA0F80915604909157040E943A
:10197000AA0F80916304909164040E94AA0F809141
:101980006504909166040E94AA0F8EE291E0909304
:101990007D0480937C048091EA049091EB0400978D
:1019A00011F00E94AA0F8CE191E090937D04809346
:1019B0007C048091A0039091A1038C57944071F412
:1019C000E0918F04F0919004908180919104809532
:1019D000892380831092A1031092A0030895E894B4
:1019E00009C097FB3EF490958095709561957F4F67
:1019F0008F4F9F4F9923A9F0F92F96E9BB27939515
:101A0000F695879577956795B795F111F8CFFAF424
:101A1000BB0F11F460FF1BC06F5F7F4F8F4F9F4F55
:101A200016C0882311F096E911C0772321F09EE8B3
:101A3000872F762F05C0662371F096E8862F70E019
:101A400060E02AF09A95660F771F881FDAF7880FF3
:101A50009695879597F90895990F0008550FAA0B49
:101A6000E0E8FEEF16161706E807F907C0F01216B1
:101A70001306E407F50798F0621B730B840B950BB4
:101A800039F40A2661F0232B242B252B21F4089509
:101A90000A2609F4A140A6958FEF811D811D0895A6
:101AA00097F99F6780E870E060E008959FEF80EC11
:101AB000089500240A9416161706180609060895B4
:101AC00000240A9412161306140605060895092E1A
:101AD0000394000C11F4882352F0BB0F40F4BF2B89
:101AE00011F460FF04C06F5F7F4F8F4F9F4F0895C9
:101AF00057FD9058440F551F59F05F3F71F04795BF
:101B0000880F97FB991F61F09F3F79F087950895A3
:101B1000121613061406551FF2CF4695F1DF08C0C2
:101B2000161617061806991FF1CF869571056105DF
:101B300008940895E894BB2766277727CB0197F987
:101B400008950E94E30DA59F900DB49F900DA49F52
:101B5000800D911D112408952F923F924F925F9214
:101B60006F927F928F929F92AF92BF92CF92DF92AD
:101B7000EF92FF920F931F93CF93DF93CDB7DEB712
:101B8000CA1BDB0B0FB6F894DEBF0FBECDBF0994A6
:101B90002A88398848885F846E847D848C849B84FD
:101BA000AA84B984C884DF80EE80FD800C811B810B
:101BB000AA81B981CE0FD11D0FB6F894DEBF0FBE3A
:101BC000CDBFED010895A29FB001B39FC001A39FB7
:101BD000700D811D1124911DB29F700D811D112466
:101BE000911D089597FB072E16F4009407D077FDFA
:101BF00009D00E94470E07FC05D03EF490958195D0
:101C00009F4F0895709561957F4F0895A1E21A2E18
:101C1000AA1BBB1BFD010DC0AA1FBB1FEE1FFF1F90
:101C2000A217B307E407F50720F0A21BB30BE40BE0
:101C3000F50B661F771F881F991F1A9469F7609527
:101C40007095809590959B01AC01BD01CF010895E1
:101C5000052E97FB1EF400940E943F0E57FD07D0FF
:101C60000E94060E07FC03D04EF40C943F0E5095D4
:101C70004095309521953F4F4F4F5F4F0895909578
:101C80008095709561957F4F8F4F9F4F0895AA1B48
:101C9000BB1B51E107C0AA1FBB1FA617B70710F057
:101CA000A61BB70B881F991F5A95A9F78095909589
:101CB000BC01CD010895EE0FFF1F0590F491E02DBA
:101CC00009940E94750E0C94670D0E94600D58F0E7
:101CD0000E94590D40F029F45F3F29F00C94500DFB
:101CE00051110C949B0D0C94560D0E94780D68F3C5
:101CF0009923B1F3552391F3951B550BBB27AA27C5
:101D000062177307840738F09F5F5F4F220F331FFE
:101D1000441FAA1FA9F335D00E2E3AF0E0E832D0C6
:101D200091505040E695001CCAF72BD0FE2F29D0C9
:101D3000660F771F881FBB1F261737074807AB079B
:101D4000B0E809F0BB0B802DBF01FF2793585F4F10
:101D50003AF09E3F510578F00C94500D0C949B0D79
:101D60005F3FE4F3983ED4F3869577956795B795F2
:101D7000F7959F5FC9F7880F911D9695879597F9FD
:101D80000895E1E0660F771F881FBB1F6217730776
:101D90008407BA0720F0621B730B840BBA0BEE1F8B
:101DA00088F7E09508950E94DA0E6894B1110C94BA
:101DB0009B0D08950E94800D88F09F5798F0B92FD1
:101DC0009927B751B0F0E1F0660F771F881F991F70
:101DD0001AF0BA95C9F714C0B13091F00E949A0D6B
:101DE000B1E008950C949A0D672F782F8827B85F7B
:101DF00039F0B93FCCF3869577956795B395D9F7C8
:101E00003EF490958095709561957F4F8F4F9F4FD1
:101E100008950E942C0D08F48FEF08950F931F93DF
:101E2000CF93DF938230910510F482E090E0E0914F
:101E30000E05F0910F0530E020E0B0E0A0E0309713
:101E400099F42115310509F44AC0281B390B2430B7
:101E50003105D8F58A819B816115710589F1FB01F6
:101E600093838283FE0111C04081518102811381DD
:101E700048175907E0F04817590799F4109761F08F
:101E800012960C93129713961C933296CF01DF9102
:101E9000CF911F910F91089500930E0510930F0598
:101EA000F4CF2115310551F04217530738F0A9013D
:101EB000DB019A01BD01DF01F801C1CFEF01F9CFCC
:101EC00090930F0580930E05CDCFFE01E20FF31F17
:101ED000819391932250310939832883D7CF209160
:101EE0000C0530910D05232B41F420910201309116
:101EF000030130930D0520930C05209100013091D2
:101F000001012115310541F42DB73EB7409104017F
:101F100050910501241B350BE0910C05F0910D0546
:101F2000E217F307A0F42E1B3F0B2817390778F0B0
:101F3000AC014E5F5F4F2417350748F04E0F5F1F0F
:101F400050930D0540930C05819391939FCFF0E042
:101F5000E0E09CCFCF93DF930097E9F0FC0132974C
:101F600013821282A0910E05B0910F05ED0130E0B1
:101F700020E01097A1F420813181820F931F2091DE
:101F80000C0530910D052817390709F061C0F09351
:101F90000D05E0930C05DF91CF910895EA01CE176E
:101FA000DF07E8F54A815B819E0141155105B1F7D4
:101FB000E901FB83EA8349915991C40FD51FEC17BE
:101FC000FD0761F4808191810296840F951FE901DC
:101FD00099838883828193819B838A83F0E0E0E008
:101FE00012968D919C9113970097B9F52D913C9184
:101FF0001197CD010296820F931F20910C0530910D
:102000000D052817390739F6309751F510920F054D
:1020100010920E05B0930D05A0930C05BCCFD38391
:10202000C28340815181840F951FC817D90761F47D
:102030004E5F5F4F88819981480F591F51834083BC
:102040008A819B81938382832115310509F0B0CF6A
:10205000F0930F05E0930E059ECFFD01DC01C0CF8C
:1020600013821282D7CFB0E0A0E0E9E3F0E10C9454
:10207000AE0D8C01009751F4CB010E940E0F8C0124
:10208000C801CDB7DEB7E0E10C94CA0DFC01E60F44
:10209000F71F9C0122503109E217F30708F49DC095
:1020A000D901CD91DC911197C617D70798F0C530AB
:1020B000D10530F3CE0104978617970708F3C61BA6
:1020C000D70B2297C193D1936D937C93CF010E943C
:1020D000AA0FD6CF5B01AC1ABD0A4C018C0E9D1E17
:1020E000A0910E05B0910F05512C412CF12CE12C43
:1020F000109731F580910C0590910D058815990583
:1021000009F05CC04616570608F058C080910001DF
:1021100090910101009741F48DB79EB74091040161
:1021200050910501841B950BE817F90708F055C07D
:10213000F0930D05E0930C05F90171836083A0CF46
:102140008D919C91119712966C90129713967C909A
:102150001397A815B90559F56C0142E0C40ED11CBE
:10216000CA14DB0420F1AC014A195B09DA011296AA
:10217000159780F06282738251834083D9016D93F9
:102180007C93E114F10471F0D7011396FC93EE9364
:10219000129776CF22968C0F9D1FF9019183808331
:1021A000F301EFCFF0930F05E0930E0569CF4816CA
:1021B000590608F42C017D01D3019ACFCB010E946E
:1021C0000E0F7C01009749F0AE01B8010E94FD108E
:1021D000C8010E94AA0F870153CF10E000E050CF42
:1021E000FB01DC0104C08D910190801921F4415064
:1021F0005040C8F7881B990B0895FB01DC0102C011
:1022000001900D9241505040D8F70895FB01DC0138
:1022100001900D920020E1F708950F931F93CF9343
:10222000DF93E0911205F09113052381EC0110E09A
:1022300000E021FD08C00FEF1FEF14C00995892BA6
:1022400011F00FEF1FEF8991609112057091130546
:10225000DB011896ED91FC918111F0CF8AE0099590
:10226000892B49F7C801DF91CF911F910F910895F4
:1022700010E0C2E6D0E004C0FE010E945B0E219691
:0A228000C336D107C9F7F894FFCF69
:10228A00000016058000000000007F03DF020C0337
:10229A00CC033D031B032F03000000000504DF02EB
:1022AA00A405040461047904EC0300000000140589
:1022BA00DF02A4050404DA04FB04EC0300000000B6
:1022CA001405DF02A4050404DA046005EC03000027
:1022DA000B0C090A10110E0F00000814150D081432
:1022EA0006070504000000000000000000000000CE
:1022FA000D0A005468657265206973206E6F742038
:10230A00656E6F756768207370616365210D0043A0
:10231A006F6E6E6578696F6E20C3A97461626C69AD
:10232A006520210044C3A9627574206465206C2766
:10233A00696E697469616C69736174696F6E20642E
:10234A00657320636F6D706F73616E74732064754B
:10235A00204D426F742E2E2E0042726F63686520E4
:10236A0064657320636170746575727320696E6940
:10237A007469616C6973C3A965732E0043617074D3
:10238A0065757220696E667261726F756765732012
:10239A00696E697469616C6973C3A92E00496E69B3
:1023AA007469616C69736174696F6E207465726DAA
:1023BA00696EC3A96520617665632073756363C31B
:1023CA00A873202100C387612073656E74206C6135
:1023DA00206C6F7365206368657A206C6573206171
:1023EA0075747265732067726F75706573E280A683
:1023FA0000E280A66168206E6F6E2C2063276573E9
:10240A0074206A7573746520005061756C2E0050D3
:10241A007265737320412E00507265737320422EC9
:10242A0000507265737320432E00507265737320D7
:10243A00442E00507265737320452E0050726573E6
:10244A007320462E00507265737320536574746945
:10245A006E672E0050726573732055702E0050728D
:10246A0065737320446F776E2E0050726573732004
:10247A004C6566742E0050726573732052696768E2
:10248A00742E00507265737320302E00507265737B
:10249A007320312E00507265737320322E005072F1
:1024AA0065737320332E00507265737320342E00C7
:1024BA00507265737320352E00507265737320361F
:1024CA002E00507265737320372E00507265737335
:0E24DA0020382E00507265737320392E0000DA
:00000001FF
